:100000000C9434000C943E000C943E000C943E0082
:100010000C943E000C943E000C943E000C943E0068
:100020000C943E000C943E000C943E000C943E0058
:100030000C943E000C943E000C9461000C943E0025
:100040000C943E000C943E000C943E000C943E0038
:100050000C943E000C943E000C943E000C943E0028
:100060000C943E000C943E0011241FBECFEFD8E04C
:10007000DEBFCDBF0E94A4000C94B1000C94000020
:10008000CF93DF93CDB7DEB784E490E022E4FC01A8
:10009000208387E490E02FEFFC01208385E490E04B
:1000A00021E0FC0120838AE290E020E4FC0120832F
:1000B0008EE690E022E0FC0120830000DF91CF91EA
:1000C00008951F920F920FB60F9211242F938F93C2
:1000D0009F93EF93FF93CF93DF9300D000D0CDB7E2
:1000E000DEB785E290E021E0FC0120831A821982CC
:1000F00005C089819A8101969A83898389819A8131
:100100000097BCF785E290E0FC0110821C821B8204
:1001100005C08B819C8101969C838B838B819C8104
:100120000097BCF7000000000F900F900F900F9009
:10013000DF91CF91FF91EF919F918F912F910F9030
:100140000FBE0F901F901895CF93DF93CDB7DEB7FA
:100150000E94400084E290E021E0FC01208378943A
:06016000FFCFF894FFCF71
:00000001FF
