:100000000C9434000C9446000C9446000C9446006A
:100010000C9446000C9446000C9446000C94A200EC
:100020000C9446000C9446000C9446000C94460038
:100030000C9446000C9446000C9469000C94460005
:100040000C9446000C9446000C9446000C94460018
:100050000C9446000C9446000C9446000C94460008
:100060000C9446000C94460011241FBECFEFD8E03C
:10007000DEBFCDBF21E0A0E0B1E001C01D92A33002
:10008000B207E1F70E94F3000C9408010C94000001
:10009000CF93DF93CDB7DEB784E490E022E4FC0198
:1000A000208387E490E024E0FC01208385E490E055
:1000B00026ECFC0120838AE290E020E4FC0120830E
:1000C0008EE690E022E0FC0120830000DF91CF91DA
:1000D00008951F920F920FB60F9211248F93CF9312
:1000E000DF93CDB7DEB7809100018F5F8093000171
:1000F0000000DF91CF918F910F900FBE0F901F9056
:100100001895CF93DF93CDB7DEB780EB90E022E474
:10011000FC01208383EB90E028ECFC01208381EB41
:1001200090E023E0FC01208384E290E028E0FC01E1
:10013000208380E790E022E0FC0120830000DF9133
:10014000CF9108951F920F920FB60F9211242F9303
:100150008F939F93EF93FF93CF93DF93CDB7DEB74A
:1001600080910001803548F085E290E0FC0120811B
:1001700085E290E02E7FFC012083809100018F3486
:1001800048F485E290E0FC01208185E290E0216066
:10019000FC012083109200010000DF91CF91FF91BC
:1001A000EF919F918F912F910F900FBE0F901F9005
:1001B0001895CF93DF9300D0CDB7DEB71A8219829E
:1001C00005C089819A8101969A83898389819A8160
:1001D000803127E29207A8F3000000000F900F90F3
:1001E000DF91CF910895CF93DF93CDB7DEB70E9413
:1001F00048000E94810084E290E0FC01208184E2BA
:1002000090E02160FC01208378940E94D900FFCF08
:04021000F894FFCF90
:00000001FF
