:100000000C9434000C9446000C9446000C9446006A
:100010000C9446000C9446000C9446000C949E00F0
:100020000C9446000C9446000C9446000C94460038
:100030000C9446000C9446000C9468000C94460006
:100040000C9446000C9446000C9446000C94460018
:100050000C9446000C9446000C9446000C94460008
:100060000C9446000C94460011241FBECFEFD8E03C
:10007000DEBFCDBF21E0A0E0B1E001C01D92A13004
:10008000B207E1F70E94B4000C94BE000C9400008B
:10009000CF93DF93CDB7DEB784E490E022E4FC0198
:1000A000208387E490E0FC01108285E490E026EC58
:1000B000FC0120838AE290E020E4FC0120838EE6AC
:1000C00090E022E0FC0120830000DF91CF910895B1
:1000D0001F920F920FB60F9211248F93CF93DF933D
:1000E000CDB7DEB782E0809300010000DF91CF91B1
:1000F0008F910F900FBE0F901F901895CF93DF93A5
:10010000CDB7DEB780EB90E022E4FC01208383EBE7
:1001100090E0FC01108281EB90E021E0FC01208363
:1001200084E290E028E0FC01208380E790E022E078
:10013000FC0120830000DF91CF9108951F920F9260
:100140000FB60F9211248F93CF93DF93CDB7DEB705
:1001500081E0809300010000DF91CF918F910F909B
:100160000FBE0F901F901895CF93DF93CDB7DEB7DA
:100170000E9448000E947E007894FFCFF894FFCF41
:00000001FF
