:100000000C9434000C943E000C943E000C943E0082
:100010000C943E000C943E000C943E000C943E0068
:100020000C943E000C943E000C943E000C943E0058
:100030000C943E000C943E000C943E000C943E0048
:100040000C943E000C943E000C943E000C943E0038
:100050000C943E000C943E000C943E000C943E0028
:100060000C943E000C943E0011241FBECFEFD8E04C
:10007000DEBFCDBF0E9440000C946D000C940000C8
:10008000CF93DF9300D000D0CDB7DEB784E290E00D
:1000900021E0FC01208385E290E021E0FC01208347
:1000A0001A82198205C089819A8101969A8389836F
:1000B00089819A819923BCF785E290E0FC01108246
:1000C0001C821B8205C08B819C8101969C838B8343
:0E00D0008B819C819923BCF7DECFF894FFCF83
:00000001FF
