:100000000C9434000C9446000C9446000C9446006A
:100010000C9446000C9446000C9446000C94B200DC
:100020000C9446000C9446000C9446000C94460038
:100030000C9446000C9446000C946D000C94460001
:100040000C9446000C9446000C9446000C94460018
:100050000C9446000C9446000C9446000C94460008
:100060000C9446000C94460011241FBECFEFD8E03C
:10007000DEBFCDBF21E0A0E0B1E001C01D92A43001
:10008000B207E1F70E947C010C9488010C940000F7
:10009000CF93DF93CDB7DEB784E490E022E4FC0198
:1000A000208387E490E023E0FC01208385E490E056
:1000B00026ECFC0120838AE290E02AE230E0F9019C
:1000C00020812064FC0120838EE690E022E0FC0188
:1000D00020830000DF91CF9108951F920F9200902E
:1000E0005F000F9211248F939F93CF93DF93CDB72F
:1000F000DEB7809102019091030101969093030174
:10010000809302010000DF91CF919F918F910F901A
:1001100000925F000F901F901895CF93DF93CDB79B
:10012000DEB780EB90E022E4FC01208383EB90E0DB
:100130002CEDFC01208381EB90E023E0FC01208387
:1001400084E290E024E230E0F90120812860FC01A3
:10015000208380E790E022E0FC0120830000DF9113
:10016000CF9108951F920F9200905F000F9211247B
:100170002F933F938F939F93EF93FF93CF93DF93AF
:10018000CDB7DEB780910201909103018E369105C3
:10019000A8F080910001909101010196817099274A
:1001A000909301018093000185E290E025E230E028
:1001B000F90120812E7FFC0120833EC085E290E082
:1001C00025E230E0F90120812160FC01208380914B
:1001D000000190910101892B79F1809100019091AA
:1001E00001018630910581F088309105B9F00497BE
:1001F00009F01EC08BE290E02BE230E0F901208193
:100200002062FC01208314C08BE290E02BE230E0FE
:10021000F90120812064FC0120830AC08BE290E078
:100220002BE230E0F90120812068FC0120830000EE
:10023000109201011092000110920301109202012C
:100240000000DF91CF91FF91EF919F918F913F91AE
:100250002F910F9000925F000F901F901895CF93F1
:10026000DF93CDB7DEB784E290E024E230E0F9011D
:1002700020812160FC0120838AE290E02AE230E0C4
:10028000F9012081206EFC0120838BE290E02BE2BB
:1002900030E0F90120812F7DFC0120838BE290E08A
:1002A0002BE230E0F90120812F7BFC0120838BE2DF
:1002B00090E02BE230E0F90120812F77FC012083D0
:1002C0000000DF91CF910895CF93DF9300D0CDB799
:1002D000DEB71A82198205C089819A8101969A83B4
:1002E000898389819A81883E9340B4F300000F90FE
:1002F0000F90DF91CF910895CF93DF93CDB7DEB705
:100300000E9448000E948D000E942F017894FFCF28
:04031000F894FFCF8F
:00000001FF
