:100000000C9434000C9446000C9446000C9446006A
:100010000C9446000C9446000C9446000C94B500D9
:100020000C9446000C9446000C9446000C94460038
:100030000C9446000C9446000C947A000C944600F4
:100040000C9446000C9446000C9446000C94460018
:100050000C9446000C9446000C9446000C94460008
:100060000C9446000C94460011241FBECFEFD8E03C
:10007000DEBFCDBF21E0A0E0B1E001C01D92A43001
:10008000B207E1F70E9425010C943C010C9400009A
:10009000CF93DF93CDB7DEB781E690E020E8FC0197
:1000A000208381E690E0FC0110820000DF91CF9177
:1000B0000895CF93DF93CDB7DEB784E490E022E4D8
:1000C000FC01208387E490E024E0FC01208385E4A8
:1000D00090E026ECFC0120838AE290E020E4FC0121
:1000E00020838EE690E022E0FC0120830000DF9177
:1000F000CF9108951F920F9200905F000F921124EC
:100100008F93CF93DF93CDB7DEB7809101018F5FDF
:10011000809301010000DF91CF918F910F900092A9
:100120005F000F901F901895CF93DF93CDB7DEB788
:1001300080EB90E022E4FC01208383EB90E028EC4C
:10014000FC01208381EB90E023E0FC01208384E22A
:1001500090E028E0FC01208380E790E022E0FC01B1
:1001600020830000DF91CF9108951F920F9200909D
:100170005F000F9211242F933F938F939F93EF93E0
:10018000FF93CF93DF93CDB7DEB780910101803528
:1001900070F0809100018F5F8093000185E290E014
:1001A00025E230E0F90120812E7FFC01208380913F
:1001B00001018F3408F5809100018823E9F085E280
:1001C00090E025E230E0F90120812160FC012083EC
:1001D00080910001882F90E08230910531F08330CA
:1001E000910529F0019729F005C0000003C0000027
:1001F00001C0000010920001109201010000DF9187
:10020000CF91FF91EF919F918F913F912F910F90FF
:1002100000925F000F901F901895CF93DF9300D04E
:10022000CDB7DEB71A82198205C089819A810196FD
:100230009A83898389819A81883E9340B4F3000030
:100240000F900F90DF91CF910895CF93DF93CDB7AB
:10025000DEB70E9448000E940D010E9459000E94D2
:10026000940084E290E024E230E0F90120812160F2
:0C027000FC0120837894FFCFF894FFCFAE
:00000001FF
