:100000000C9434000C9446000C9446000C9446006A
:100010000C9446000C9446000C9446000C94A900E5
:100020000C9446000C9446000C9446000C94460038
:100030000C9446000C9446000C9464000C9446000A
:100040000C9446000C9446000C9446000C94460018
:100050000C9446000C9446000C9446000C94460008
:100060000C9446000C94460011241FBECFEFD8E03C
:10007000DEBFCDBF21E0A0E0B1E001C01D92A730FE
:10008000B207E1F70E9457010C9463010C94000041
:10009000CF93DF93CDB7DEB784E490E022E0FC019C
:1000A000208387E490E023E0FC01208385E490E056
:1000B00026ECFC0120838EE690E022E0FC01208308
:1000C0000000DF91CF9108951F920F9200905F0082
:1000D0000F9211248F939F93CF93DF93CDB7DEB709
:1000E0008091020190910301019690930301809306
:1000F00002010000DF91CF919F918F910F900092AC
:100100005F000F901F901895CF93DF93CDB7DEB7A8
:1001100080EB90E022E4FC01208383EB90E02CED67
:10012000FC01208381EB90E023E0FC01208384E24A
:1001300090E024E230E0F90120812860FC01208376
:1001400080E790E022E0FC0120830000DF91CF9166
:1001500008951F920F9200905F000F9211242F9329
:100160003F938F939F93EF93FF93CF93DF93CDB7FD
:10017000DEB7809106018430C8F180910201909130
:1001800003019695879596958795909303018093A3
:1001900002012091020130910301809104019091AC
:1001A00005018217930750F485E290E025E230E0E4
:1001B000F90120812E7FFC01208309C085E290E0B7
:1001C00025E230E0F90120812160FC01208380914B
:1001D0000201909103019093050180930401109214
:1001E0000601109203011092020105C080910601E0
:1001F0008F5F809306010000DF91CF91FF91EF9117
:100200009F918F913F912F910F9000925F000F90DF
:100210001F901895CF93DF93CDB7DEB784E290E0BF
:1002200024E230E0F90120812160FC0120838AE290
:1002300090E02AE230E0F9012081206EFC01208369
:100240008BE290E02BE230E0F90120812F7DFC0170
:1002500020838BE290E02BE230E0F90120812F7BBC
:10026000FC0120838BE290E02BE230E0F901208159
:100270002F77FC0120830000DF91CF910895CF9369
:10028000DF9300D0CDB7DEB71A82198205C089810D
:100290009A8101969A83898389819A81883E9340C5
:1002A000B4F300000F900F90DF91CF910895CF939A
:1002B000DF93CDB7DEB70E9448000E9484000E9401
:0A02C0000A017894FFCFF894FFCFF5
:00000001FF
