:100000000C9434000C9446000C9446000C9446006A
:100010000C9446000C9446000C9446000C94B500D9
:100020000C9446000C9446000C9446000C94460038
:100030000C9446000C9446000C9464000C9446000A
:100040000C9446000C9446000C9446000C94460018
:100050000C9446000C9446000C9446000C94460008
:100060000C9446000C94460011241FBECFEFD8E03C
:10007000DEBFCDBF21E0A0E0B1E001C01D92A531FF
:10008000B207E1F70E94F4010C947A040C9400008A
:10009000CF93DF93CDB7DEB784E490E022E0FC019C
:1000A000208387E490E023E0FC01208385E490E056
:1000B00026ECFC0120838EE690E022E0FC01208308
:1000C0000000DF91CF9108951F920F920FB60F920B
:1000D00011248F939F93AF93BF93CF93DF93CDB7AB
:1000E000DEB78091030190910401A0910501B091C8
:1000F00006010196A11DB11D809303019093040197
:10010000A0930501B09306010000DF91CF91BF914C
:10011000AF919F918F910F900FBE0F901F901895E8
:10012000CF93DF93CDB7DEB780EB90E022E4FC0104
:10013000208383EB90E02CEDFC01208381EB90E0A9
:1001400026E0FC01208384E290E0FC01208184E22F
:1001500090E02860FC01208380E790E022E0FC0131
:1001600020830000DF91CF9108951F920F920FB668
:100170000F9211248F939F93CF93DF93CDB7DEB768
:100180008091130190911401019690931401809332
:1001900013010000DF91CF919F918F910F900FBEBF
:1001A0000F901F901895CF93DF93CDB7DEB784E201
:1001B00090E0FC01208184E290E02160FC0120833A
:1001C0008AE290E0FC0120818AE290E0206EFC014E
:1001D00020838BE290E0FC0120818BE290E02F7D78
:1001E000FC0120838BE290E0FC0120818BE290E017
:1001F0002F7BFC0120838BE290E0FC0120818BE2CD
:1002000090E02F77FC0120830000DF91CF910895CB
:10021000CF92DF92EF92FF92CF93DF9300D000D086
:1002200000D0CDB7DEB79E838D838091130190916E
:1002300014018730910508F49EC0F8948091030161
:1002400090910401A0910501B0910601BC01CD017E
:100250000E94CA036B017C018091130190911401EB
:10026000CC01A0E0B0E0BC01CD010E94C803DC01DC
:10027000CB019C01AD01C701B6010E945603DC0110
:10028000CB0180930B0190930C01A0930D01B093CF
:100290000E01C0900B01D0900C01E0900D01F09088
:1002A0000E0180910F0190911001A0911101B09168
:1002B00012019C01AD01C701B6010E94E402DC01FC
:1002C000CB0189839A83AB83BC8320E030E040EC90
:1002D00050E469817A818B819C810E945103811550
:1002E00074F48D819E81FC01808191819C012F5F3E
:1002F0003F4F8D819E81FC013183208305C08D811C
:100300009E81FC011182108280910B0190910C0161
:10031000A0910D01B0910E0180930F0190931001F7
:10032000A0931101B09312011092140110921301C5
:10033000109203011092040110920501109206011F
:1003400087E390E0FC01208187E390E02260FC01DC
:10035000208385E390E0FC01208185E390E022602A
:10036000FC01208386E490E0FC01108282EB90E0A7
:10037000FC011082789400000F900F900F900F9066
:100380000F900F90DF91CF91FF90EF90DF90CF9083
:100390000895CF93DF9300D000D0CDB7DEB7698347
:1003A0007A838B839C8389819A81AB81BC810097FE
:1003B000A105B10564F489819A81AB81BC81B095B6
:1003C000A095909581959F4FAF4FBF4F04C08981F5
:1003D0009A81AB81BC81BC01CD010F900F900F9031
:1003E0000F90DF91CF9108950F931F93CF93DF93D9
:1003F00000D000D000D0CDB7DEB71E821D8219829A
:100400001A821B821C820E9448000E9490000E9457
:10041000D300789485E290E0FC01208185E290E0B1
:100420002160FC01208304C0CE0105960E940801D2
:100430008D819E81843FF1E09F07B0F385E290E0DB
:10044000FC01208185E290E02E7FFC0120838091D9
:1004500013019091140187309105C8F3F8944091ED
:100460000301509104016091050170910601809192
:10047000070190910801A0910901B0910A018A0138
:100480009B01081B190B2A0B3B0BD901C801BC01AE
:10049000CD010E94C901DC01CB0189839A83AB8322
:1004A000BC8389819A81AB81BC8186309105A1058D
:1004B000B10554F48091010190910201019690934D
:1004C00002018093010148C08091010190910201D5
:1004D000009709F441C0809100018130B1F580910D
:1004E0000101909102018830910501F18930910557
:1004F00040F58130910521F08430910561F021C0F3
:100500008BE290E0FC0130818BE290E020E2232737
:10051000FC01208317C08BE290E0FC0130818BE26C
:1005200090E020E42327FC0120830CC08BE290E0C4
:10053000FC0130818BE290E020E82327FC0120833E
:1005400001C000001092000103C081E0809300010F
:100550001092020110920101809103019091040117
:10056000A0910501B09106018093070190930801C5
:10057000A0930901B0930A01109214011092130183
:1005800010920301109204011092050110920601CD
:1005900087E390E0FC01208187E390E02260FC018A
:1005A000208385E390E0FC01208185E390E02260D8
:1005B000FC01208386E490E0FC01108282EB90E055
:1005C000FC011082789443CF5058BB27AA270E9481
:1005D000FC020C9440040E94320438F00E9439045A
:1005E00020F039F49F3F19F426F40C942F040EF4F4
:1005F000E095E7FB0C942904E92F0E94510458F37D
:10060000BA17620773078407950720F079F4A6F5F7
:100610000C9473040EF4E0950B2EBA2FA02D0B0151
:10062000B90190010C01CA01A0011124FF27591B37
:1006300099F0593F50F4503E68F11A16F040A22F3D
:10064000232F342F4427585FF3CF469537952795AE
:10065000A795F0405395C9F77EF41F16BA0B620BAD
:10066000730B840BBAF09150A1F0FF0FBB1F661FF4
:10067000771F881FC2F70EC0BA0F621F731F841F37
:1006800048F4879577956795B795F7959E3F08F05D
:10069000B0CF9395880F08F09927EE0F979587951F
:1006A00008950E94050408F481E008950E946A03F9
:1006B0000C9440040E94390458F00E94320440F027
:1006C00029F45F3F29F00C94290451110C9474040F
:1006D0000C942F040E94510468F39923B1F355231D
:1006E00091F3951B550BBB27AA2762177307840745
:1006F00038F09F5F5F4F220F331F441FAA1FA9F3DB
:1007000035D00E2E3AF0E0E832D091505040E695C8
:10071000001CCAF72BD0FE2F29D0660F771F881F29
:10072000BB1F261737074807AB07B0E809F0BB0B1C
:10073000802DBF01FF2793585F4F3AF09E3F510530
:1007400078F00C9429040C9474045F3FE4F3983E11
:10075000D4F3869577956795B795F7959F5FC9F719
:10076000880F911D9695879597F90895E1E0660F9A
:10077000771F881FBB1F621773078407BA0720F013
:10078000621B730B840BBA0BEE1F88F7E09508957C
:10079000E89409C097FB3EF490958095709561951B
:1007A0007F4F8F4F9F4F9923A9F0F92F96E9BB27D1
:1007B0009395F695879577956795B795F111F8CF4D
:1007C000FAF4BB0F11F460FF1BC06F5F7F4F8F4FB8
:1007D0009F4F16C0882311F096E911C0772321F0AE
:1007E0009EE8872F762F05C0662371F096E8862F46
:1007F00070E060E02AF09A95660F771F881FDAF79D
:10080000880F9695879597F90895990F0008550FC9
:10081000AA0BE0E8FEEF16161706E807F907C0F086
:1008200012161306E407F50798F0621B730B840B8E
:10083000950B39F40A2661F0232B242B252B21F468
:1008400008950A2609F4A140A6958FEF811D811D08
:10085000089597F99F6780E870E060E008959FEF42
:1008600080EC089500240A94161617061806090647
:10087000089500240A941216130614060506089516
:10088000092E0394000C11F4882352F0BB0F40F49E
:10089000BF2B11F460FF04C06F5F7F4F8F4F9F4FDE
:1008A000089557FD9058440F551F59F05F3F71F060
:1008B0004795880F97FB991F61F09F3F79F08795C7
:1008C0000895121613061406551FF2CF4695F1DF50
:1008D00008C0161617061806991FF1CF86957105E0
:1008E000610508940895E894BB2766277727CB0114
:0808F00097F90895F894FFCF79
:00000001FF
