:100000000C9434000C9446000C9446000C9446006A
:100010000C9446000C9446000C9446000C94A700E7
:100020000C9446000C9446000C9446000C94460038
:100030000C9446000C9446000C9468000C94460006
:100040000C9446000C9446000C9446000C94460018
:100050000C9446000C9446000C9446000C94460008
:100060000C9446000C94460011241FBECFEFD8E03C
:10007000DEBFCDBF21E0A0E0B1E001C01D92A630FF
:10008000B207E1F70E940F010C9424010C940000C8
:10009000CF93DF93CDB7DEB784E490E022E4FC0198
:1000A000208387E490E0FC01108285E490E026EC58
:1000B000FC0120838AE290E020E4FC0120838EE6AC
:1000C00090E022E0FC0120830000DF91CF910895B1
:1000D0001F920F920FB60F9211248F939F93CF937D
:1000E000DF93CDB7DEB780910001909101010196B9
:1000F00090930101809300010000DF91CF919F91C7
:100100008F910F900FBE0F901F901895CF93DF9394
:10011000CDB7DEB780EB90E022E4FC01208383EBD7
:1001200090E024E1FC01208381EB90E023E0FC01DE
:10013000208384E290E028E0FC01208380E790E0C7
:1001400022E0FC0120830000DF91CF9108951F92EF
:100150000F920FB60F9211242F933F938F939F937B
:10016000EF93FF93CF93DF93CDB7DEB720910001DC
:10017000309101018091020190910301820F931F40
:100180009695879590930501809304012091000135
:1001900030910101809104019091050128173907E0
:1001A00028F085E290E0FC01108205C085E290E035
:1001B00021E0FC0120838091000190910101909346
:1001C00003018093020110920101109200010000CE
:1001D000DF91CF91FF91EF919F918F913F912F915F
:1001E0000F900FBE0F901F901895CF93DF9300D004
:1001F000CDB7DEB71A82198205C089819A8101962E
:100200009A83898389819A81803127E29207A8F3B2
:10021000000000000F900F90DF91CF910895CF93D1
:10022000DF93CDB7DEB70E9448000E94860084E2CB
:1002300090E0FC01208184E290E02160FC012083B9
:0C02400078940E94F500FFCFF894FFCFE7
:00000001FF
