:100000000C9434000C9446000C9446000C9446006A
:100010000C9446000C9446000C9446000C94B700D7
:100020000C9446000C9446000C9446000C94460038
:100030000C9446000C9446000C9464000C9446000A
:100040000C9446000C9446000C9446000C94460018
:100050000C9446000C9446000C9446000C94460008
:100060000C9446000C94460011241FBECFEFD8E03C
:10007000DEBFCDBF21E0A0E0B1E001C01D92AF30F6
:10008000B207E1F70E94CA010C946F040C940000BF
:10009000CF93DF93CDB7DEB784E490E022E0FC019C
:1000A000208387E490E023E0FC01208385E490E056
:1000B00026ECFC0120838EE690E022E0FC01208308
:1000C0000000DF91CF9108951F920F9200905F0082
:1000D0000F9211248F939F93AF93BF93CF93DF938E
:1000E000CDB7DEB78091010190910201A09103018B
:1000F000B09104010196A11DB11D8093010190935F
:100100000201A0930301B09304010000DF91CF919D
:10011000BF91AF919F918F910F9000925F000F90D0
:100120001F901895CF93DF93CDB7DEB780EB90E0AB
:1001300022E4FC01208383EB90E02CEDFC01208382
:1001400081EB90E026E0FC01208384E290E024E251
:1001500030E0F90120812860FC01208380E790E0F5
:1001600022E0FC0120830000DF91CF9108951F92CF
:100170000F9200905F000F9211248F939F93CF9363
:10018000DF93CDB7DEB780910D0190910E010196FE
:1001900090930E0180930D010000DF91CF919F910C
:1001A0008F910F9000925F000F901F901895CF9342
:1001B000DF93CDB7DEB784E290E024E230E0F901CE
:1001C00020812160FC0120838AE290E02AE230E075
:1001D000F9012081206EFC0120838BE290E02BE26C
:1001E00030E0F90120812F7DFC0120838BE290E03B
:1001F0002BE230E0F90120812F7BFC0120838BE290
:1002000090E02BE230E0F90120812F77FC01208380
:100210000000DF91CF910895CF92DF92EF92FF928D
:10022000CF93DF9300D000D000D0CDB7DEB79E8350
:100230008D8380910D0190910E01059708F49CC06B
:10024000F8948091010190910201A0910301B09175
:100250000401BC01CD010E94B8036B017C018091B7
:100260000D0190910E01CC01A0E0B0E0BC01CD01E8
:100270000E94B803DC01CB019C01AD01C701B601AE
:100280000E944603DC01CB01809305019093060197
:10029000A0930701B0930801809105019091060198
:1002A000A0910701B09108012091090130910A0144
:1002B00040910B0150910C01BC01CD010E94D40270
:1002C000DC01CB0189839A83AB83BC8320E030E0DF
:1002D00040E85FE369817A818B819C810E944103C0
:1002E000882374F48D819E81FC01808191819C0121
:1002F0002F5F3F4F8D819E81FC013183208305C09C
:100300008D819E81FC011182108280910501909166
:100310000601A0910701B091080180930901909313
:100320000A01A0930B01B0930C0110920E011092E0
:100330000D0110920101109202011092030110921E
:10034000040187E390E027E330E0F9012081226097
:10035000FC01208385E390E025E330E0F901208172
:100360002260FC01208386E490E0FC01108282EB95
:1003700090E0FC0110827894000026960FB6F89465
:10038000DEBF0FBECDBFDF91CF91FF90EF90DF902A
:10039000CF900895CF92DF92EF92FF92CF93DF93A9
:1003A00000D0CDB7DEB71A8219820E9448000E94A1
:1003B00092000E94D700789485E290E025E230E038
:1003C000F90120812160FC01208304C0CE01019647
:1003D0000E940C0189819A81883E9340B8F385E29E
:1003E00090E025E230E0F90120812E7FFC0120839E
:1003F00080910D0190910E010597D0F3F8948091B2
:10040000010190910201A0910301B0910401BC018E
:10041000CD010E94B8036B017C0180910D01909188
:100420000E01CC01A0E0B0E0BC01CD010E94B803F8
:10043000DC01CB019C01AD01C701B6010E9446035E
:10044000DC01CB018093050190930601A093070185
:10045000B09308018091050190910601A0910701D8
:10046000B09108012091090130910A0140910B01DE
:1004700050910C01BC01CD010E94D402DC01CB01E2
:1004800020E030E040E85FE3BC01CD010E946A0457
:100490001816D4F580910001882F90E081309105E5
:1004A00089F082309105C9F0892B09F021C08BE2D7
:1004B00090E02BE230E0F901308120E22327FC01BB
:1004C000208316C08BE290E02BE230E0F90130810E
:1004D00020E42327FC0120830BC08BE290E02BE279
:1004E00030E0F901308120E82327FC01208300005F
:1004F00080910001882F90E0019623E030E0B9015F
:100500000E94AC028093000110920E0110920D0126
:100510001092010110920201109203011092040145
:1005200087E390E027E330E0F90120812260FC01BD
:10053000208385E390E025E330E0F901208122600B
:10054000FC01208386E490E0FC01108282EB90E0C5
:10055000FC01108278944CCF97FB072E16F4009480
:1005600007D077FD09D00E94C00207FC05D03EF4F9
:10057000909581959F4F0895709561957F4F08954F
:10058000AA1BBB1B51E107C0AA1FBB1FA617B707B9
:1005900010F0A61BB70B881F991F5A95A9F78095D5
:1005A0009095BC01CD0108955058BB27AA270E9401
:1005B000EC020C9430040E94220438F00E942904BA
:1005C00020F039F49F3F19F426F40C941F040EF424
:1005D000E095E7FB0C941904E92F0E94410458F3BD
:1005E000BA17620773078407950720F079F4A6F518
:1005F0000C9463040EF4E0950B2EBA2FA02D0B0182
:10060000B90190010C01CA01A0011124FF27591B57
:1006100099F0593F50F4503E68F11A16F040A22F5D
:10062000232F342F4427585FF3CF469537952795CE
:10063000A795F0405395C9F77EF41F16BA0B620BCD
:10064000730B840BBAF09150A1F0FF0FBB1F661F14
:10065000771F881FC2F70EC0BA0F621F731F841F57
:1006600048F4879577956795B795F7959E3F08F07D
:10067000B0CF9395880F08F09927EE0F979587953F
:1006800008950E94F50308F481E008950E945A033A
:100690000C9430040E94290458F00E94220440F077
:1006A00029F45F3F29F00C94190451110C9464044F
:1006B0000C941F040E94410468F39923B1F355235D
:1006C00091F3951B550BBB27AA2762177307840765
:1006D00038F09F5F5F4F220F331F441FAA1FA9F3FB
:1006E00035D00E2E3AF0E0E832D091505040E695E9
:1006F000001CCAF72BD0FE2F29D0660F771F881F4A
:10070000BB1F261737074807AB07B0E809F0BB0B3C
:10071000802DBF01FF2793585F4F3AF09E3F510550
:1007200078F00C9419040C9464045F3FE4F3983E51
:10073000D4F3869577956795B795F7959F5FC9F739
:10074000880F911D9695879597F90895E1E0660FBA
:10075000771F881FBB1F621773078407BA0720F033
:10076000621B730B840BBA0BEE1F88F7E09508959C
:10077000E89409C097FB3EF490958095709561953B
:100780007F4F8F4F9F4F9923A9F0F92F96E9BB27F1
:100790009395F695879577956795B795F111F8CF6D
:1007A000FAF4BB0F11F460FF1BC06F5F7F4F8F4FD8
:1007B0009F4F16C0882311F096E911C0772321F0CE
:1007C0009EE8872F762F05C0662371F096E8862F66
:1007D00070E060E02AF09A95660F771F881FDAF7BD
:1007E000880F9695879597F90895990F0008550FEA
:1007F000AA0BE0E8FEEF16161706E807F907C0F0A7
:1008000012161306E407F50798F0621B730B840BAE
:10081000950B39F40A2661F0232B242B252B21F488
:1008200008950A2609F4A140A6958FEF811D811D28
:10083000089597F99F6780E870E060E008959FEF62
:1008400080EC089500240A94161617061806090667
:10085000089500240A941216130614060506089536
:10086000092E0394000C11F4882352F0BB0F40F4BE
:10087000BF2B11F460FF04C06F5F7F4F8F4F9F4FFE
:10088000089557FD9058440F551F59F05F3F71F080
:100890004795880F97FB991F61F09F3F79F08795E7
:1008A0000895121613061406551FF2CF4695F1DF70
:1008B00008C0161617061806991FF1CF8695710500
:1008C000610508940895E894BB2766277727CB0134
:1008D00097F908950E94F50308F48FEF0895F894AE
:0208E000FFCF48
:00000001FF
