:100000000C9434000C9446000C9446000C9446006A
:100010000C9446000C9407010C9446000C94B80014
:100020000C9446000C9446000C9446000C94460038
:100030000C9446000C9446000C9446000C94460028
:100040000C9446000C9446000C9446000C94460018
:100050000C9446000C9446000C9446000C94460008
:100060000C9446000C94460011241FBECFEFD8E03C
:10007000DEBFCDBF21E0A0E0B1E001C01D92A33002
:10008000B207E1F70E94C9010C94D3010C9400005F
:10009000CF93DF9300D0CDB7DEB71A82198205C0A7
:1000A00089819A8101969A83898389819A8199238A
:1000B000BCF700000F900F90DF91CF910895CF9380
:1000C000DF93CDB7DEB785E290E025E230E0F901BD
:1000D00020812F77FC0120830E94480085E290E078
:1000E00025E230E0F90120812068FC01208387E3CC
:1000F00090E0FC018081882F90E0AC014270552790
:1001000087E390E027E330E0F9012081322F242FAC
:10011000232BFC01208382EB90E0FC01108280E71E
:1001200090E022E0FC0120830000DF91CF91089550
:10013000CF93DF93CDB7DEB780EB90E022E4FC01F4
:10014000208383EB90E02CEDFC01208381EB90E099
:1001500023E0FC01208384E290E024E230E0F90116
:1001600020812860FC0120830000DF91CF91089559
:100170001F920F9200905F000F9211242F933F93D4
:100180008F939F93EF93FF93CF93DF931F92CDB7FE
:10019000DEB719828091020181708983809102010A
:1001A00086958093020189818823A9F41092010128
:1001B00085E290E025E230E0F90120812068FC0131
:1001C000208380E790E020E730E0F90120812D7F57
:1001D000FC0120830CC081E08093010185E290E066
:1001E00025E230E0F90120812F77FC012083000017
:1001F0000F90DF91CF91FF91EF919F918F913F9160
:100200002F910F9000925F000F901F9018951F92F2
:100210000F9200905F000F9211242F933F934F9302
:100220005F936F937F938F939F93AF93BF93EF935E
:10023000FF93CF93DF931F92CDB7DEB7198289E288
:1002400090E0FC018081898380910101882349F538
:100250008981882F90E080729927892B41F481E071
:10026000809301018FE0809302010E945F008981E9
:10027000882F90E080749927892B41F481E0809346
:1002800001018FE1809302010E945F008981882330
:1002900044F081E0809301018FE3809302010E948A
:1002A0005F0000000F90DF91CF91FF91EF91BF9120
:1002B000AF919F918F917F916F915F914F913F91FE
:1002C0002F910F9000925F000F901F901895CF9381
:1002D000DF93CDB7DEB78AE290E02AE230E0F901A1
:1002E00020812F7DFC0120838AE290E02AE230E029
:1002F000F90120812F7BFC0120838AE290E02AE231
:1003000030E0F90120812F77FC0120838BE290E01F
:100310002BE230E0F90120812062FC0120838BE296
:1003200090E02BE230E0F90120812064FC01208381
:100330008BE290E02BE230E0F90120812068FC01A3
:10034000208388E690E028E630E0F90120812460EF
:10035000FC0120838DE690E02DE630E0F90120815C
:10036000206EFC01208384E290E024E230E0F90179
:1003700020812068FC01208385E290E025E230E0C6
:10038000F90120812068FC0120830000DF91CF91DA
:100390000895CF93DF93CDB7DEB70E9498000E94F7
:0A03A00067017894FFCFF894FFCFB7
:00000001FF
