:100000000C9434000C9446000C9446000C9446006A
:100010000C9446000C94B7000C9446000C946800B5
:100020000C9446000C9446000C9446000C94460038
:100030000C9446000C9446000C9446000C94460028
:100040000C9446000C9446000C9446000C94460018
:100050000C9446000C9446000C9446000C94460008
:100060000C9446000C94460011241FBECFEFD8E03C
:10007000DEBFCDBF21E0A0E0B1E001C01D92A23003
:10008000B207E1F70E9481010C948B010C940000EF
:10009000CF93DF93CDB7DEB780EB90E022E4FC0195
:1000A000208383EB90E028ECFC01208381EB90E03F
:1000B00023E0FC01208384E290E024E230E0F901B7
:1000C00020812860FC0120830000DF91CF910895FA
:1000D0001F920F9200905F000F9211242F933F9375
:1000E0008F939F93EF93FF93CF93DF931F92CDB79F
:1000F000DEB71982809101018170898380910101AD
:1001000086958093010189818823A9F410920001CA
:1001100085E290E025E230E0F90120812F77FC01B3
:10012000208380E790E020E730E0F90120812D7FF7
:10013000FC0120830CC081E08093000185E290E007
:1001400025E230E0F90120812068FC0120830000D5
:100150000F90DF91CF91FF91EF919F918F913F9100
:100160002F910F9000925F000F901F9018951F9293
:100170000F9200905F000F9211242F938F939F9303
:10018000EF93FF93CF93DF931F92CDB7DEB7198222
:1001900089E290E0FC0180818983809100018823BD
:1001A00009F03EC08981882F90E080749927892BBF
:1001B00079F481E08093000183E08093010182EB78
:1001C00090E0FC01108280E790E022E0FC012083B7
:1001D0008981882F90E080729927892B79F481E0BA
:1001E0008093000181E08093010182EB90E0FC01AB
:1001F000108280E790E022E0FC012083898188233F
:100200007CF081E08093000187E08093010182EB24
:1002100090E0FC01108280E790E022E0FC01208366
:1002200000000F90DF91CF91FF91EF919F918F91FF
:100230002F910F9000925F000F901F901895CF9311
:10024000DF93CDB7DEB78AE290E02AE230E0F90131
:1002500020812F7DFC0120838AE290E02AE230E0B9
:10026000F90120812F7BFC0120838AE290E02AE2C1
:1002700030E0F90120812F77FC0120838BE290E0B0
:100280002BE230E0F90120812062FC0120838BE227
:1002900090E02BE230E0F90120812064FC01208312
:1002A0008BE290E02BE230E0F90120812068FC0134
:1002B000208388E690E028E630E0F9012081246080
:1002C000FC0120838DE690E02DE630E0F9012081ED
:1002D000206EFC01208384E290E024E230E0F9010A
:1002E00020812068FC01208385E290E025E230E057
:1002F000F90120812F77FC0120830000DF91CF914D
:100300000895CF93DF93CDB7DEB70E9448000E94D7
:0A0310001F017894FFCFF894FFCF8F
:00000001FF
