:100000000C9434000C9446000C9446000C9446006A
:100010000C9446000C94B3000C9446000C946800B9
:100020000C9446000C9446000C9446000C94460038
:100030000C9446000C9446000C9446000C94460028
:100040000C9446000C9446000C9446000C94460018
:100050000C9446000C9446000C9446000C94460008
:100060000C9446000C94460011241FBECFEFD8E03C
:10007000DEBFCDBF21E0A0E0B1E001C01D92A23003
:10008000B207E1F70E947B010C9485010C940000FB
:10009000CF93DF93CDB7DEB780EB90E022E4FC0195
:1000A000208383EB90E028ECFC01208381EB90E03F
:1000B00023E0FC01208384E290E0FC01208184E2C3
:1000C00090E02860FC0120830000DF91CF9108952B
:1000D0001F920F920FB60F9211242F938F939F931D
:1000E000EF93FF93CF93DF930F92CDB7DEB71982D3
:1000F00080910101817089838091010186958093AF
:10010000010189818115A9F41092000185E290E036
:10011000FC01208185E290E02E7FFC01208380E7B6
:1001200090E0FC01208180E790E02D7FFC0120839E
:100130000CC081E08093000185E290E0FC01208109
:1001400085E290E02160FC01208300000F90DF91A8
:10015000CF91FF91EF919F918F912F910F900FBEB3
:100160000F901F9018951F920F920FB60F921124A7
:100170002F938F939F93EF93FF93CF93DF930F92E0
:10018000CDB7DEB7198289E290E0FC0180818983D6
:1001900080910001811509F03EC08981882F90E08F
:1001A00080749927009779F481E08093000183E0BF
:1001B0008093010182EB90E0FC01108280E790E0E7
:1001C00022E0FC0120838981882F90E080729927AA
:1001D000009779F481E08093000181E08093010130
:1001E00082EB90E0FC01108280E790E022E0FC01CD
:1001F0002083898181157CF081E08093000187E074
:100200008093010182EB90E0FC01108280E790E096
:1002100022E0FC01208300000F90DF91CF91FF913D
:10022000EF919F918F912F910F900FBE0F901F9084
:100230001895CF93DF93CDB7DEB78AE290E0FC014B
:1002400020818AE290E02F7DFC0120838AE290E009
:10025000FC0120818AE290E02F7BFC0120838AE26E
:1002600090E0FC0120818AE290E02F77FC0120835E
:100270008BE290E0FC0120818BE290E02062FC01A7
:1002800020838BE290E0FC0120818BE290E02064EF
:10029000FC0120838BE290E0FC0120818BE290E066
:1002A0002068FC01208388E690E0FC01208188E63C
:1002B00090E02460FC0120838DE690E0FC01208129
:1002C0008DE690E0206EFC01208384E290E0FC014A
:1002D000208184E290E02160FC01208385E290E0AF
:1002E000FC01208185E290E02E7FFC01208300004C
:1002F000DF91CF910895CF93DF93CDB7DEB70E9402
:0E03000048000E9419017894FFCFF894FFCFB7
:00000001FF
