:100000000C9434000C9446000C9446000C9446006A
:100010000C9446000C94F2000C9446000C94DC0006
:100020000C9446000C9446000C9446000C94460038
:100030000C9446000C9446000C9446000C94460028
:100040000C9446000C9446000C9446000C94460018
:100050000C9446000C9446000C9446000C94460008
:100060000C9446000C94460011241FBECFEFD8E03C
:10007000DEBFCDBF21E0A0E0B1E001C01D92A43001
:10008000B207E1F70E94B1010C9461020C940000E8
:10009000CF93DF9300D0CDB7DEB71A82198205C0A7
:1000A00089819A8101969A83898389819A81803195
:1000B00027E29207A8F3000000000F900F90DF9155
:1000C000CF910895CF93DF9300D0CDB7DEB71A82DA
:1000D000198205C089819A8101969A8389838981D1
:1000E0009A810097BCF7000000000F900F90DF91FD
:1000F000CF910895CF93DF93CDB7DEB787E390E03C
:10010000FC018081882F90E0282F2270332787E31D
:1001100090E0FC018081982F822F292F282B87E3E4
:1001200090E0FC01208382EB90E0FC01108280E7EC
:1001300090E022E0FC0120830000DF91CF91089540
:10014000CF93DF93CDB7DEB785E290E0FC0120814D
:1001500085E290E02F77FC0120830E94620085E217
:1001600090E0FC01208185E290E02068FC01208382
:100170000000DF91CF910895CF93DF93CDB7DEB725
:1001800080EB90E022E4FC01208383EB90E02CEDF7
:10019000FC01208381EB90E023E0FC01208384E2DA
:1001A00090E0FC01208184E290E02860FC01208343
:1001B0000000DF91CF9108951F920F920FB60F921A
:1001C00011248F93CF93DF93CDB7DEB781E0809377
:1001D00001010000DF91CF918F910F900FBE0F9022
:1001E0001F9018951F920F920FB60F9211242F9304
:1001F0003F934F935F936F937F938F939F93AF93AF
:10020000BF93EF93FF93CF93DF930F92CDB7DEB7FA
:100210000E944800198289E290E0FC018081898374
:1002200080910001811531F581E080930001898181
:10023000882F90E080729927009731F484E090E055
:1002400090930301809302018981882F90E080744C
:100250009927009731F488E090E090930301809310
:1002600002018981811534F081E090E090930301CF
:100270008093020100000F90DF91CF91FF91EF91E9
:10028000BF91AF919F918F917F916F915F914F91AE
:100290003F912F910F900FBE0F901F901895CF9305
:1002A000DF93CDB7DEB78AE290E0FC0120818AE2DD
:1002B00090E02F7DFC0120838AE290E0FC01208108
:1002C0008AE290E02F7BFC0120838AE290E0FC012F
:1002D00020818AE290E02F77FC0120838BE290E07E
:1002E000FC0120818BE290E02062FC0120838BE204
:1002F00090E0FC0120818BE290E02064FC012083EF
:100300008BE290E0FC0120818BE290E02068FC0110
:10031000208388E690E0FC01208188E690E024605C
:10032000FC0120838DE690E0FC0120818DE690E0C9
:10033000206EFC01208384E290E0FC01208184E2B5
:1003400090E02068FC01208385E290E0FC012081A0
:1003500085E290E02068FC0120830000DF91CF91CE
:100360000895CF93DF9300D00F92CDB7DEB71A82F6
:1003700019821B820E94BC000E944F0178948091D8
:100380000201909103018230910508F46CC08091C4
:100390000001813009F067C089E290E0FC018081B2
:1003A0008B838B81809580768B8309C089E290E076
:1003B000FC0180818B838B81809580768B838B8100
:1003C0008115A1F788E690E0FC01208188E690E0A5
:1003D0002B7FFC0120830E94A0000E947A001A82D9
:1003E000198215C085E290E0FC01208185E290E051
:1003F0002F77FC0120830000809101018115E1F33A
:100400001092010189819A8101969A838983809152
:1004100002019091030129813A812817390710F3CD
:1004200085E290E0FC01208185E290E02068FC01FB
:10043000208380E790E0FC01208180E790E02D7F21
:10044000FC0120831092030110920201109200011E
:100450001092010188E690E0FC01208188E690E09E
:100460002460FC012083809102019091030181307E
:10047000910509F084CF80910001813009F07FCF90
:1004800089E290E0FC0180818B8305C089E290E0E5
:10049000FC0180818B838B818115C4F785E290E01C
:1004A000FC01308185E290E020E82327FC012083D5
:1004B00010920301109202011092000110920101AA
:0604C0005ECFF894FFCFAF
:00000001FF
