:100000000C9434000C9446000C9446000C9446006A
:100010000C9446000C94F0000C9446000C94D8000C
:100020000C9446000C9446000C9446000C94460038
:100030000C9446000C9446000C9446000C94460028
:100040000C9446000C9446000C9446000C94460018
:100050000C9446000C9446000C9446000C94460008
:100060000C9446000C94460011241FBECFEFD8E03C
:10007000DEBFCDBF21E0A0E0B1E001C01D92A43001
:10008000B207E1F70E94B1010C945F020C940000EA
:10009000CF93DF9300D0CDB7DEB71A82198205C0A7
:1000A00089819A8101969A83898389819A81803195
:1000B0009742B0F300000F900F90DF91CF91089519
:1000C000CF93DF9300D0CDB7DEB71A82198205C077
:1000D00089819A8101969A83898389819A8199235A
:1000E000BCF700000F900F90DF91CF910895CF9350
:1000F000DF93CDB7DEB787E390E0FC018081882FE6
:1001000090E0AC014270552787E390E027E330E0B0
:10011000F9012081322F242F232BFC01208382EB35
:1001200090E0FC01108280E790E022E0FC01208357
:100130000000DF91CF910895CF93DF93CDB7DEB765
:1001400085E290E025E230E0F90120812F77FC0183
:1001500020830E94600085E290E025E230E0F90112
:1001600020812068FC0120830000DF91CF91089559
:10017000CF93DF93CDB7DEB780EB90E022E4FC01B4
:10018000208383EB90E02CEDFC01208381EB90E059
:1001900023E0FC01208384E290E024E230E0F901D6
:1001A00020812860FC0120830000DF91CF91089519
:1001B0001F920F9200905F000F9211248F93CF93A4
:1001C000DF93CDB7DEB781E0809301010000DF91BE
:1001D000CF918F910F9000925F000F901F90189514
:1001E0001F920F9200905F000F9211242F933F9364
:1001F0004F935F936F937F938F939F93AF93BF932F
:10020000EF93FF93CF93DF931F92CDB7DEB70E949A
:100210004800198289E290E0FC0180818983809105
:100220000001882331F581E0809300018981882FC6
:1002300090E080729927892B31F484E090E09093CC
:100240000301809302018981882F90E080749927AF
:10025000892B31F488E090E09093030180930201B0
:100260008981882334F081E090E0909303018093AA
:10027000020100000F90DF91CF91FF91EF91BF91AC
:10028000AF919F918F917F916F915F914F913F912E
:100290002F910F9000925F000F901F901895CF93B1
:1002A000DF93CDB7DEB78AE290E02AE230E0F901D1
:1002B00020812F7DFC0120838AE290E02AE230E059
:1002C000F90120812F7BFC0120838AE290E02AE261
:1002D00030E0F90120812F77FC0120838BE290E050
:1002E0002BE230E0F90120812062FC0120838BE2C7
:1002F00090E02BE230E0F90120812064FC012083B2
:100300008BE290E02BE230E0F90120812068FC01D3
:10031000208388E690E028E630E0F901208124601F
:10032000FC0120838DE690E02DE630E0F90120818C
:10033000206EFC01208384E290E024E230E0F901A9
:1003400020812068FC01208385E290E025E230E0F6
:10035000F90120812068FC0120830000DF91CF910A
:100360000895CF93DF9300D01F92CDB7DEB71A82E6
:1003700019821B820E94B8000E944F0178948091DC
:10038000020190910301029708F46CC08091000172
:10039000813009F067C089E290E0FC0180818B83A5
:1003A0008B81809580768B8309C089E290E0FC0187
:1003B00080818B838B81809580768B838B81882352
:1003C000A1F788E690E028E630E0F90120812B7F54
:1003D000FC0120830E949C000E9477001A821982EF
:1003E00015C085E290E025E230E0F90120812F7709
:1003F000FC0120830000809101018823E1F3109229
:10040000010189819A8101969A83898380910201F1
:100410009091030129813A812817390710F385E269
:1004200090E025E230E0F90120812068FC01208382
:1004300080E790E020E730E0F90120812D7FFC018A
:100440002083109203011092020110920001109279
:10045000010188E690E028E630E0F901208124607F
:10046000FC0120838091020190910301019709F022
:1004700086CF80910001813009F081CF89E290E040
:10048000FC0180818B8305C089E290E0FC018081C2
:100490008B838B818823C4F785E290E025E230E0EE
:1004A000F901308120E82327FC0120831092030109
:1004B00010920201109200011092010160CFF89495
:0204C000FFCF6C
:00000001FF
